{
    "contractName": "InfinitySystemV2",
    "abi": [
        {
            "inputs": [],
            "stateMutability": "nonpayable",
            "type": "constructor"
        },
        {
            "inputs": [
                {
                    "internalType": "address",
                    "name": "_tokenTRC20",
                    "type": "address"
                }
            ],
            "name": "ChangeTokenPrincipal",
            "outputs": [
                {
                    "internalType": "bool",
                    "name": "",
                    "type": "bool"
                }
            ],
            "stateMutability": "nonpayable",
            "type": "function"
        },
        {
            "inputs": [],
            "name": "MIN_RETIRO",
            "outputs": [
                {
                    "internalType": "uint256",
                    "name": "",
                    "type": "uint256"
                }
            ],
            "stateMutability": "view",
            "type": "function"
        },
        {
            "inputs": [],
            "name": "PRECIO_BLOCK",
            "outputs": [
                {
                    "internalType": "uint256",
                    "name": "",
                    "type": "uint256"
                }
            ],
            "stateMutability": "view",
            "type": "function"
        },
        {
            "inputs": [
                {
                    "internalType": "bool[]",
                    "name": "old",
                    "type": "bool[]"
                }
            ],
            "name": "actualizarArrayBool",
            "outputs": [
                {
                    "internalType": "bool[]",
                    "name": "",
                    "type": "bool[]"
                }
            ],
            "stateMutability": "pure",
            "type": "function"
        },
        {
            "inputs": [
                {
                    "internalType": "uint256[]",
                    "name": "old",
                    "type": "uint256[]"
                }
            ],
            "name": "actualizarArrayUint256",
            "outputs": [
                {
                    "internalType": "uint256[]",
                    "name": "",
                    "type": "uint256[]"
                }
            ],
            "stateMutability": "pure",
            "type": "function"
        },
        {
            "inputs": [
                {
                    "internalType": "address[]",
                    "name": "oldNetwork",
                    "type": "address[]"
                }
            ],
            "name": "actualizarNetwork",
            "outputs": [
                {
                    "internalType": "address[]",
                    "name": "",
                    "type": "address[]"
                }
            ],
            "stateMutability": "pure",
            "type": "function"
        },
        {
            "inputs": [
                {
                    "internalType": "address",
                    "name": "",
                    "type": "address"
                }
            ],
            "name": "adRoi",
            "outputs": [
                {
                    "internalType": "uint256",
                    "name": "",
                    "type": "uint256"
                }
            ],
            "stateMutability": "view",
            "type": "function"
        },
        {
            "inputs": [
                {
                    "internalType": "address",
                    "name": "_user",
                    "type": "address"
                },
                {
                    "internalType": "bool",
                    "name": "_sumar",
                    "type": "bool"
                },
                {
                    "internalType": "uint256",
                    "name": "_value",
                    "type": "uint256"
                }
            ],
            "name": "addReferal",
            "outputs": [],
            "stateMutability": "nonpayable",
            "type": "function"
        },
        {
            "inputs": [
                {
                    "internalType": "address",
                    "name": "_user",
                    "type": "address"
                },
                {
                    "internalType": "bool",
                    "name": "_sumar",
                    "type": "bool"
                },
                {
                    "internalType": "uint256",
                    "name": "_value",
                    "type": "uint256"
                }
            ],
            "name": "addRoi",
            "outputs": [],
            "stateMutability": "nonpayable",
            "type": "function"
        },
        {
            "inputs": [
                {
                    "internalType": "address",
                    "name": "",
                    "type": "address"
                }
            ],
            "name": "addressToId",
            "outputs": [
                {
                    "internalType": "uint256",
                    "name": "",
                    "type": "uint256"
                }
            ],
            "stateMutability": "view",
            "type": "function"
        },
        {
            "inputs": [
                {
                    "internalType": "address",
                    "name": "",
                    "type": "address"
                }
            ],
            "name": "admin",
            "outputs": [
                {
                    "internalType": "bool",
                    "name": "",
                    "type": "bool"
                }
            ],
            "stateMutability": "view",
            "type": "function"
        },
        {
            "inputs": [
                {
                    "internalType": "address",
                    "name": "",
                    "type": "address"
                }
            ],
            "name": "admin2",
            "outputs": [
                {
                    "internalType": "bool",
                    "name": "",
                    "type": "bool"
                }
            ],
            "stateMutability": "view",
            "type": "function"
        },
        {
            "inputs": [
                {
                    "internalType": "address",
                    "name": "_user",
                    "type": "address"
                },
                {
                    "internalType": "uint256",
                    "name": "_value",
                    "type": "uint256"
                }
            ],
            "name": "asignarBlokePago",
            "outputs": [
                {
                    "internalType": "bool",
                    "name": "",
                    "type": "bool"
                }
            ],
            "stateMutability": "nonpayable",
            "type": "function"
        },
        {
            "inputs": [
                {
                    "internalType": "address",
                    "name": "_user",
                    "type": "address"
                },
                {
                    "internalType": "uint256",
                    "name": "_value",
                    "type": "uint256"
                }
            ],
            "name": "asignarBlokePago2",
            "outputs": [
                {
                    "internalType": "bool",
                    "name": "",
                    "type": "bool"
                }
            ],
            "stateMutability": "nonpayable",
            "type": "function"
        },
        {
            "inputs": [
                {
                    "internalType": "address",
                    "name": "_user",
                    "type": "address"
                },
                {
                    "internalType": "address",
                    "name": "_sponsor",
                    "type": "address"
                }
            ],
            "name": "asignarMembership",
            "outputs": [
                {
                    "internalType": "bool",
                    "name": "",
                    "type": "bool"
                }
            ],
            "stateMutability": "nonpayable",
            "type": "function"
        },
        {
            "inputs": [
                {
                    "internalType": "uint256",
                    "name": "",
                    "type": "uint256"
                }
            ],
            "name": "baserange",
            "outputs": [
                {
                    "internalType": "bool",
                    "name": "",
                    "type": "bool"
                }
            ],
            "stateMutability": "view",
            "type": "function"
        },
        {
            "inputs": [],
            "name": "baserangelength",
            "outputs": [
                {
                    "internalType": "uint256",
                    "name": "",
                    "type": "uint256"
                }
            ],
            "stateMutability": "view",
            "type": "function"
        },
        {
            "inputs": [
                {
                    "internalType": "uint256",
                    "name": "",
                    "type": "uint256"
                }
            ],
            "name": "blockesRango",
            "outputs": [
                {
                    "internalType": "uint256",
                    "name": "",
                    "type": "uint256"
                }
            ],
            "stateMutability": "view",
            "type": "function"
        },
        {
            "inputs": [
                {
                    "internalType": "address",
                    "name": "",
                    "type": "address"
                },
                {
                    "internalType": "uint256",
                    "name": "",
                    "type": "uint256"
                }
            ],
            "name": "blokes",
            "outputs": [
                {
                    "internalType": "uint256",
                    "name": "inicio",
                    "type": "uint256"
                },
                {
                    "internalType": "uint256",
                    "name": "value",
                    "type": "uint256"
                },
                {
                    "internalType": "uint256",
                    "name": "amount",
                    "type": "uint256"
                }
            ],
            "stateMutability": "view",
            "type": "function"
        },
        {
            "inputs": [
                {
                    "internalType": "uint256",
                    "name": "_value",
                    "type": "uint256"
                }
            ],
            "name": "buyBlocks",
            "outputs": [],
            "stateMutability": "nonpayable",
            "type": "function"
        },
        {
            "inputs": [
                {
                    "internalType": "address",
                    "name": "yo",
                    "type": "address"
                },
                {
                    "internalType": "uint256",
                    "name": "_largo",
                    "type": "uint256"
                }
            ],
            "name": "column",
            "outputs": [
                {
                    "internalType": "address[]",
                    "name": "",
                    "type": "address[]"
                }
            ],
            "stateMutability": "view",
            "type": "function"
        },
        {
            "inputs": [
                {
                    "internalType": "address",
                    "name": "yo",
                    "type": "address"
                }
            ],
            "name": "columnHijos",
            "outputs": [
                {
                    "internalType": "address[]",
                    "name": "",
                    "type": "address[]"
                }
            ],
            "stateMutability": "view",
            "type": "function"
        },
        {
            "inputs": [
                {
                    "internalType": "bool",
                    "name": "_true_false",
                    "type": "bool"
                }
            ],
            "name": "controlWitdrawl",
            "outputs": [
                {
                    "internalType": "bool",
                    "name": "",
                    "type": "bool"
                }
            ],
            "stateMutability": "nonpayable",
            "type": "function"
        },
        {
            "inputs": [
                {
                    "internalType": "address",
                    "name": "_user",
                    "type": "address"
                }
            ],
            "name": "depositos",
            "outputs": [
                {
                    "internalType": "uint256[]",
                    "name": "",
                    "type": "uint256[]"
                },
                {
                    "internalType": "uint256[]",
                    "name": "",
                    "type": "uint256[]"
                },
                {
                    "internalType": "bool[]",
                    "name": "",
                    "type": "bool[]"
                },
                {
                    "internalType": "uint256",
                    "name": "",
                    "type": "uint256"
                }
            ],
            "stateMutability": "view",
            "type": "function"
        },
        {
            "inputs": [],
            "name": "descuento",
            "outputs": [
                {
                    "internalType": "uint256",
                    "name": "",
                    "type": "uint256"
                }
            ],
            "stateMutability": "view",
            "type": "function"
        },
        {
            "inputs": [],
            "name": "dias",
            "outputs": [
                {
                    "internalType": "uint256",
                    "name": "",
                    "type": "uint256"
                }
            ],
            "stateMutability": "view",
            "type": "function"
        },
        {
            "inputs": [],
            "name": "duracionMembership",
            "outputs": [
                {
                    "internalType": "uint256",
                    "name": "",
                    "type": "uint256"
                }
            ],
            "stateMutability": "view",
            "type": "function"
        },
        {
            "inputs": [
                {
                    "internalType": "uint256",
                    "name": "",
                    "type": "uint256"
                }
            ],
            "name": "gananciasRango",
            "outputs": [
                {
                    "internalType": "uint256",
                    "name": "",
                    "type": "uint256"
                }
            ],
            "stateMutability": "view",
            "type": "function"
        },
        {
            "inputs": [
                {
                    "internalType": "address",
                    "name": "",
                    "type": "address"
                },
                {
                    "internalType": "uint256",
                    "name": "",
                    "type": "uint256"
                }
            ],
            "name": "hijo",
            "outputs": [
                {
                    "internalType": "address",
                    "name": "",
                    "type": "address"
                }
            ],
            "stateMutability": "view",
            "type": "function"
        },
        {
            "inputs": [
                {
                    "internalType": "uint256",
                    "name": "",
                    "type": "uint256"
                }
            ],
            "name": "idToAddress",
            "outputs": [
                {
                    "internalType": "address",
                    "name": "",
                    "type": "address"
                }
            ],
            "stateMutability": "view",
            "type": "function"
        },
        {
            "inputs": [
                {
                    "internalType": "address",
                    "name": "",
                    "type": "address"
                }
            ],
            "name": "investors",
            "outputs": [
                {
                    "internalType": "bool",
                    "name": "registered",
                    "type": "bool"
                },
                {
                    "internalType": "uint256",
                    "name": "membership",
                    "type": "uint256"
                },
                {
                    "internalType": "uint256",
                    "name": "balanceRef",
                    "type": "uint256"
                },
                {
                    "internalType": "uint256",
                    "name": "totalRef",
                    "type": "uint256"
                },
                {
                    "internalType": "uint256",
                    "name": "invested",
                    "type": "uint256"
                },
                {
                    "internalType": "uint256",
                    "name": "paidAt",
                    "type": "uint256"
                },
                {
                    "internalType": "uint256",
                    "name": "withdrawn",
                    "type": "uint256"
                },
                {
                    "internalType": "uint256",
                    "name": "directos",
                    "type": "uint256"
                },
                {
                    "internalType": "string",
                    "name": "data",
                    "type": "string"
                },
                {
                    "internalType": "uint256",
                    "name": "blokesDirectos",
                    "type": "uint256"
                }
            ],
            "stateMutability": "view",
            "type": "function"
        },
        {
            "inputs": [],
            "name": "lastUserId",
            "outputs": [
                {
                    "internalType": "uint256",
                    "name": "",
                    "type": "uint256"
                }
            ],
            "stateMutability": "view",
            "type": "function"
        },
        {
            "inputs": [
                {
                    "internalType": "address payable",
                    "name": "_newadmin",
                    "type": "address"
                }
            ],
            "name": "makeNewAdmin",
            "outputs": [],
            "stateMutability": "nonpayable",
            "type": "function"
        },
        {
            "inputs": [
                {
                    "internalType": "address payable",
                    "name": "_newadmin",
                    "type": "address"
                }
            ],
            "name": "makeNewAdmin2",
            "outputs": [],
            "stateMutability": "nonpayable",
            "type": "function"
        },
        {
            "inputs": [
                {
                    "internalType": "address payable",
                    "name": "_oldadmin",
                    "type": "address"
                }
            ],
            "name": "makeRemoveAdmin",
            "outputs": [],
            "stateMutability": "nonpayable",
            "type": "function"
        },
        {
            "inputs": [
                {
                    "internalType": "address payable",
                    "name": "_oldadmin",
                    "type": "address"
                }
            ],
            "name": "makeRemoveAdmin2",
            "outputs": [],
            "stateMutability": "nonpayable",
            "type": "function"
        },
        {
            "inputs": [],
            "name": "newRecompensa",
            "outputs": [],
            "stateMutability": "nonpayable",
            "type": "function"
        },
        {
            "inputs": [],
            "name": "onOffWitdrawl",
            "outputs": [
                {
                    "internalType": "bool",
                    "name": "",
                    "type": "bool"
                }
            ],
            "stateMutability": "view",
            "type": "function"
        },
        {
            "inputs": [],
            "name": "owner",
            "outputs": [
                {
                    "internalType": "address payable",
                    "name": "",
                    "type": "address"
                }
            ],
            "stateMutability": "view",
            "type": "function"
        },
        {
            "inputs": [
                {
                    "internalType": "address",
                    "name": "",
                    "type": "address"
                }
            ],
            "name": "padre",
            "outputs": [
                {
                    "internalType": "address",
                    "name": "",
                    "type": "address"
                }
            ],
            "stateMutability": "view",
            "type": "function"
        },
        {
            "inputs": [],
            "name": "personas",
            "outputs": [
                {
                    "internalType": "uint256",
                    "name": "",
                    "type": "uint256"
                }
            ],
            "stateMutability": "view",
            "type": "function"
        },
        {
            "inputs": [],
            "name": "porcent",
            "outputs": [
                {
                    "internalType": "uint256",
                    "name": "",
                    "type": "uint256"
                }
            ],
            "stateMutability": "view",
            "type": "function"
        },
        {
            "inputs": [
                {
                    "internalType": "uint256",
                    "name": "",
                    "type": "uint256"
                }
            ],
            "name": "porcientos",
            "outputs": [
                {
                    "internalType": "uint256",
                    "name": "",
                    "type": "uint256"
                }
            ],
            "stateMutability": "view",
            "type": "function"
        },
        {
            "inputs": [],
            "name": "precioRegistro",
            "outputs": [
                {
                    "internalType": "uint256",
                    "name": "",
                    "type": "uint256"
                }
            ],
            "stateMutability": "view",
            "type": "function"
        },
        {
            "inputs": [
                {
                    "internalType": "uint256",
                    "name": "",
                    "type": "uint256"
                }
            ],
            "name": "primervez",
            "outputs": [
                {
                    "internalType": "uint256",
                    "name": "",
                    "type": "uint256"
                }
            ],
            "stateMutability": "view",
            "type": "function"
        },
        {
            "inputs": [
                {
                    "internalType": "uint256",
                    "name": "",
                    "type": "uint256"
                }
            ],
            "name": "puntosRango",
            "outputs": [
                {
                    "internalType": "uint256",
                    "name": "",
                    "type": "uint256"
                }
            ],
            "stateMutability": "view",
            "type": "function"
        },
        {
            "inputs": [
                {
                    "internalType": "address",
                    "name": "",
                    "type": "address"
                },
                {
                    "internalType": "uint256",
                    "name": "",
                    "type": "uint256"
                }
            ],
            "name": "rangoReclamado",
            "outputs": [
                {
                    "internalType": "bool",
                    "name": "",
                    "type": "bool"
                }
            ],
            "stateMutability": "view",
            "type": "function"
        },
        {
            "inputs": [],
            "name": "redimBNB",
            "outputs": [
                {
                    "internalType": "uint256",
                    "name": "",
                    "type": "uint256"
                }
            ],
            "stateMutability": "nonpayable",
            "type": "function"
        },
        {
            "inputs": [
                {
                    "internalType": "uint256",
                    "name": "_value",
                    "type": "uint256"
                }
            ],
            "name": "redimTokenPrincipal02",
            "outputs": [
                {
                    "internalType": "uint256",
                    "name": "",
                    "type": "uint256"
                }
            ],
            "stateMutability": "nonpayable",
            "type": "function"
        },
        {
            "inputs": [
                {
                    "internalType": "address",
                    "name": "_sponsor",
                    "type": "address"
                },
                {
                    "internalType": "string",
                    "name": "_datos",
                    "type": "string"
                }
            ],
            "name": "registro",
            "outputs": [],
            "stateMutability": "nonpayable",
            "type": "function"
        },
        {
            "inputs": [
                {
                    "internalType": "uint256",
                    "name": "_descuento",
                    "type": "uint256"
                }
            ],
            "name": "setDescuento",
            "outputs": [
                {
                    "internalType": "bool",
                    "name": "",
                    "type": "bool"
                }
            ],
            "stateMutability": "nonpayable",
            "type": "function"
        },
        {
            "inputs": [
                {
                    "internalType": "uint256",
                    "name": "_min",
                    "type": "uint256"
                }
            ],
            "name": "setMIN_RETIRO",
            "outputs": [
                {
                    "internalType": "uint256",
                    "name": "",
                    "type": "uint256"
                }
            ],
            "stateMutability": "nonpayable",
            "type": "function"
        },
        {
            "inputs": [
                {
                    "internalType": "uint256",
                    "name": "_nivel",
                    "type": "uint256"
                },
                {
                    "internalType": "uint256",
                    "name": "_value",
                    "type": "uint256"
                }
            ],
            "name": "setPorcientos",
            "outputs": [
                {
                    "internalType": "uint256[]",
                    "name": "",
                    "type": "uint256[]"
                }
            ],
            "stateMutability": "nonpayable",
            "type": "function"
        },
        {
            "inputs": [
                {
                    "internalType": "uint256",
                    "name": "_precio",
                    "type": "uint256"
                }
            ],
            "name": "setPrecioRegistro",
            "outputs": [
                {
                    "internalType": "bool",
                    "name": "",
                    "type": "bool"
                }
            ],
            "stateMutability": "nonpayable",
            "type": "function"
        },
        {
            "inputs": [
                {
                    "internalType": "uint256",
                    "name": "_value",
                    "type": "uint256"
                }
            ],
            "name": "setPriceBlock",
            "outputs": [
                {
                    "internalType": "bool",
                    "name": "",
                    "type": "bool"
                }
            ],
            "stateMutability": "nonpayable",
            "type": "function"
        },
        {
            "inputs": [
                {
                    "internalType": "uint256",
                    "name": "_nivel",
                    "type": "uint256"
                },
                {
                    "internalType": "uint256",
                    "name": "_value",
                    "type": "uint256"
                }
            ],
            "name": "setPrimeravezPorcientos",
            "outputs": [
                {
                    "internalType": "uint256[]",
                    "name": "",
                    "type": "uint256[]"
                }
            ],
            "stateMutability": "nonpayable",
            "type": "function"
        },
        {
            "inputs": [
                {
                    "internalType": "bool[]",
                    "name": "_baserange",
                    "type": "bool[]"
                },
                {
                    "internalType": "uint256[]",
                    "name": "_gananciasRango",
                    "type": "uint256[]"
                },
                {
                    "internalType": "uint256[]",
                    "name": "_puntosRango",
                    "type": "uint256[]"
                }
            ],
            "name": "setRangos",
            "outputs": [
                {
                    "internalType": "bool",
                    "name": "",
                    "type": "bool"
                }
            ],
            "stateMutability": "nonpayable",
            "type": "function"
        },
        {
            "inputs": [
                {
                    "internalType": "uint256",
                    "name": "_porcentaje",
                    "type": "uint256"
                }
            ],
            "name": "setRetorno",
            "outputs": [
                {
                    "internalType": "uint256",
                    "name": "",
                    "type": "uint256"
                }
            ],
            "stateMutability": "nonpayable",
            "type": "function"
        },
        {
            "inputs": [
                {
                    "internalType": "uint256",
                    "name": "_dias",
                    "type": "uint256"
                }
            ],
            "name": "setTiempo",
            "outputs": [
                {
                    "internalType": "uint256",
                    "name": "",
                    "type": "uint256"
                }
            ],
            "stateMutability": "nonpayable",
            "type": "function"
        },
        {
            "inputs": [
                {
                    "internalType": "uint256",
                    "name": "_unidades",
                    "type": "uint256"
                }
            ],
            "name": "setTiempoUnidades",
            "outputs": [
                {
                    "internalType": "uint256",
                    "name": "",
                    "type": "uint256"
                }
            ],
            "stateMutability": "nonpayable",
            "type": "function"
        },
        {
            "inputs": [
                {
                    "internalType": "address[]",
                    "name": "_wallet",
                    "type": "address[]"
                },
                {
                    "internalType": "uint256[]",
                    "name": "_fee",
                    "type": "uint256[]"
                }
            ],
            "name": "setWalletFee",
            "outputs": [
                {
                    "internalType": "bool",
                    "name": "",
                    "type": "bool"
                }
            ],
            "stateMutability": "nonpayable",
            "type": "function"
        },
        {
            "inputs": [
                {
                    "internalType": "address[]",
                    "name": "_wallets",
                    "type": "address[]"
                },
                {
                    "internalType": "uint256[]",
                    "name": "_valores",
                    "type": "uint256[]"
                }
            ],
            "name": "setWalletstransfers",
            "outputs": [
                {
                    "internalType": "bool",
                    "name": "",
                    "type": "bool"
                }
            ],
            "stateMutability": "nonpayable",
            "type": "function"
        },
        {
            "inputs": [
                {
                    "internalType": "uint256",
                    "name": "_duracionMembership",
                    "type": "uint256"
                }
            ],
            "name": "setduracionMembership",
            "outputs": [
                {
                    "internalType": "bool",
                    "name": "",
                    "type": "bool"
                }
            ],
            "stateMutability": "nonpayable",
            "type": "function"
        },
        {
            "inputs": [],
            "name": "tiempo",
            "outputs": [
                {
                    "internalType": "uint256",
                    "name": "",
                    "type": "uint256"
                }
            ],
            "stateMutability": "view",
            "type": "function"
        },
        {
            "inputs": [],
            "name": "tokenPricipal",
            "outputs": [
                {
                    "internalType": "address",
                    "name": "",
                    "type": "address"
                }
            ],
            "stateMutability": "view",
            "type": "function"
        },
        {
            "inputs": [],
            "name": "totalInvested",
            "outputs": [
                {
                    "internalType": "uint256",
                    "name": "",
                    "type": "uint256"
                }
            ],
            "stateMutability": "view",
            "type": "function"
        },
        {
            "inputs": [],
            "name": "totalInvestors",
            "outputs": [
                {
                    "internalType": "uint256",
                    "name": "",
                    "type": "uint256"
                }
            ],
            "stateMutability": "view",
            "type": "function"
        },
        {
            "inputs": [],
            "name": "totalRange",
            "outputs": [
                {
                    "internalType": "uint256",
                    "name": "",
                    "type": "uint256"
                }
            ],
            "stateMutability": "view",
            "type": "function"
        },
        {
            "inputs": [],
            "name": "totalRangeWitdrawl",
            "outputs": [
                {
                    "internalType": "uint256",
                    "name": "",
                    "type": "uint256"
                }
            ],
            "stateMutability": "view",
            "type": "function"
        },
        {
            "inputs": [],
            "name": "totalRefRewards",
            "outputs": [
                {
                    "internalType": "uint256",
                    "name": "",
                    "type": "uint256"
                }
            ],
            "stateMutability": "view",
            "type": "function"
        },
        {
            "inputs": [],
            "name": "totalRefWitdrawl",
            "outputs": [
                {
                    "internalType": "uint256",
                    "name": "",
                    "type": "uint256"
                }
            ],
            "stateMutability": "view",
            "type": "function"
        },
        {
            "inputs": [],
            "name": "totalRoiWitdrawl",
            "outputs": [
                {
                    "internalType": "uint256",
                    "name": "",
                    "type": "uint256"
                }
            ],
            "stateMutability": "view",
            "type": "function"
        },
        {
            "inputs": [],
            "name": "totalTeamWitdrawl",
            "outputs": [
                {
                    "internalType": "uint256",
                    "name": "",
                    "type": "uint256"
                }
            ],
            "stateMutability": "view",
            "type": "function"
        },
        {
            "inputs": [
                {
                    "internalType": "address payable",
                    "name": "newOwner",
                    "type": "address"
                }
            ],
            "name": "transferOwnership",
            "outputs": [],
            "stateMutability": "nonpayable",
            "type": "function"
        },
        {
            "inputs": [],
            "name": "unidades",
            "outputs": [
                {
                    "internalType": "uint256",
                    "name": "",
                    "type": "uint256"
                }
            ],
            "stateMutability": "view",
            "type": "function"
        },
        {
            "inputs": [
                {
                    "internalType": "address",
                    "name": "_user",
                    "type": "address"
                },
                {
                    "internalType": "uint256",
                    "name": "_value",
                    "type": "uint256"
                },
                {
                    "internalType": "bool",
                    "name": "_add",
                    "type": "bool"
                }
            ],
            "name": "updateBloke",
            "outputs": [],
            "stateMutability": "nonpayable",
            "type": "function"
        },
        {
            "inputs": [
                {
                    "internalType": "address",
                    "name": "_user",
                    "type": "address"
                },
                {
                    "internalType": "uint256",
                    "name": "_value",
                    "type": "uint256"
                },
                {
                    "internalType": "bool",
                    "name": "_add",
                    "type": "bool"
                }
            ],
            "name": "updateBlokeRange",
            "outputs": [],
            "stateMutability": "nonpayable",
            "type": "function"
        },
        {
            "inputs": [
                {
                    "internalType": "uint256",
                    "name": "",
                    "type": "uint256"
                }
            ],
            "name": "usdtRetirado",
            "outputs": [
                {
                    "internalType": "uint256",
                    "name": "",
                    "type": "uint256"
                }
            ],
            "stateMutability": "view",
            "type": "function"
        },
        {
            "inputs": [
                {
                    "internalType": "uint256",
                    "name": "",
                    "type": "uint256"
                }
            ],
            "name": "valor",
            "outputs": [
                {
                    "internalType": "uint256",
                    "name": "",
                    "type": "uint256"
                }
            ],
            "stateMutability": "view",
            "type": "function"
        },
        {
            "inputs": [
                {
                    "internalType": "uint256",
                    "name": "",
                    "type": "uint256"
                }
            ],
            "name": "valorFee",
            "outputs": [
                {
                    "internalType": "uint256",
                    "name": "",
                    "type": "uint256"
                }
            ],
            "stateMutability": "view",
            "type": "function"
        },
        {
            "inputs": [
                {
                    "internalType": "uint256",
                    "name": "",
                    "type": "uint256"
                }
            ],
            "name": "wallet",
            "outputs": [
                {
                    "internalType": "address",
                    "name": "",
                    "type": "address"
                }
            ],
            "stateMutability": "view",
            "type": "function"
        },
        {
            "inputs": [
                {
                    "internalType": "uint256",
                    "name": "",
                    "type": "uint256"
                }
            ],
            "name": "walletFee",
            "outputs": [
                {
                    "internalType": "address",
                    "name": "",
                    "type": "address"
                }
            ],
            "stateMutability": "view",
            "type": "function"
        },
        {
            "inputs": [],
            "name": "withdraw",
            "outputs": [],
            "stateMutability": "nonpayable",
            "type": "function"
        },
        {
            "inputs": [],
            "name": "withdrawTeam",
            "outputs": [],
            "stateMutability": "nonpayable",
            "type": "function"
        },
        {
            "inputs": [
                {
                    "internalType": "address",
                    "name": "any_user",
                    "type": "address"
                }
            ],
            "name": "withdrawable",
            "outputs": [
                {
                    "internalType": "uint256",
                    "name": "",
                    "type": "uint256"
                }
            ],
            "stateMutability": "view",
            "type": "function"
        },
        {
            "inputs": [
                {
                    "internalType": "address",
                    "name": "any_user",
                    "type": "address"
                }
            ],
            "name": "withdrawableRange",
            "outputs": [
                {
                    "internalType": "uint256",
                    "name": "amount",
                    "type": "uint256"
                }
            ],
            "stateMutability": "view",
            "type": "function"
        }
    ],
    "bytecode": "600380547355d398326f99059ff775485246999027b31979556001600160a01b03199182168117835560048054909216179055677ce66c50e28400006005556801a055690d9db8000060065560e0604052605a6080908152601e60a052600a60c0526200007091600791906200052a565b5060408051606081018252603c815260146020820152600a918101919091526200009f9060089060036200052a565b506040805161018081018252600080825260208201819052918101829052606081018290526080810182905260a0810182905260c0810182905260e081018290526101008101829052610120810182905261014081018290526101608101919091526200011190600990600c6200057f565b5060408051610180810182526729a2241af62c0000808252602082018190529181018290526801a055690d9db800006060820152680340aad21b3b70000060808201526804e1003b28d928000060a0820152682086ac35105260000060c082015268410d586a20a4c0000060e0820152686194049f30f720000061010082015261012081018290526101408101829052610160810191909152620001ba90600a90600c62000626565b50604051806101800160405280600654600a620001d8919062000788565b81526020016006546014620001ee919062000788565b8152602001600654601e62000204919062000788565b815260200160065460646200021a919062000788565b815260200160065460c862000230919062000788565b815260200160065461012c62000247919062000788565b81526020016006546103e86200025e919062000788565b81526020016006546107d062000275919062000788565b8152602001600654610bb86200028c919062000788565b8152602001600654612710620002a3919062000788565b8152602001600654614e20620002ba919062000788565b8152602001600654617530620002d1919062000788565b9052620002e390600b90600c6200066f565b50600c805460ff19166001908117909155678ac7230489e80000600d5561016d600e55610384600f556201518060105560d2601155606460125560026013819055601482905560249190915560408051808201909152732f7821f1e3cbbf5022bb790db3ee7dea4a7a7c008152736530d1c49a2c205bad5d0b2d2927308b6fdee3786020820152620003799160259190620006ad565b5060408051808201909152605a8152600a60208201526200039f9060269060026200052a565b5060408051606081018252736e6a34f68d9a3722aec8b53127f2772e8c973737815273ecde6061226723abbe76dc033ac821b69e4252d7602082015273300e516c4c52f94fa1e82568acc0c88c860628a19181019190915262000407906027906003620006ad565b5060408051606081018252604b81526006602082015260039181018290526200043491602891906200052a565b503480156200044257600080fd5b50600080546001600160a01b0319163390811782558152600160208181526040808420805460ff19908116851790915584546001600160a01b03168552601a9092529092208054909216178155601054600e54620004a1919062000788565b620004af9061271062000788565b620004bb90426200076d565b6001820155336000908152602080526040902060098054620004df92919062000705565b50507f65ce8396b736f5da9d881cc6fbcb11ef9721292dc41ec8c40879fd9edea5744d80546001600160a01b031916339081179091556000908152601f6020526040812055620007c0565b8280548282559060005260206000209081019282156200056d579160200282015b828111156200056d578251829060ff169055916020019190600101906200054b565b506200057b92915062000756565b5090565b82805482825590600052602060002090601f016020900481019282156200056d5791602002820160005b83821115620005e857835183826101000a81548160ff0219169083151502179055509260200192600101602081600001049283019260010302620005a9565b8015620006175782816101000a81549060ff0219169055600101602081600001049283019260010302620005e8565b50506200057b92915062000756565b8280548282559060005260206000209081019282156200056d579160200282015b828111156200056d57825182906001600160481b031690559160200191906001019062000647565b8280548282559060005260206000209081019282156200056d579160200282015b828111156200056d57825182559160200191906001019062000690565b8280548282559060005260206000209081019282156200056d579160200282015b828111156200056d57825182546001600160a01b0319166001600160a01b03909116178255602090920191600190910190620006ce565b82805482825590600052602060002090601f016020900481019282156200056d57600052602060002091601f016020900482015b828111156200056d57825482559160010191906001019062000739565b5b808211156200057b576000815560010162000757565b60008219821115620007835762000783620007aa565b500190565b6000816000190483118215151615620007a557620007a5620007aa565b500290565b634e487b7160e01b600052601160045260246000fd5b6142e180620007d06000396000f3fe608060405234801561001057600080fd5b50600436106104c25760003560e01c8063725fc27011610278578063b17b6e441161015c578063cfda9ee6116100ce578063f5c9dbef11610092578063f5c9dbef14610ae3578063f90b3f5a14610aeb578063fc5d861514610afe578063fcec0fdf14610b11578063fd14d59814610b3f578063ff0b0cc514610b4757600080fd5b8063cfda9ee614610aa0578063e7348e8c14610ab3578063ecdb171f14610ac0578063eef117fd14610ac8578063f2fde38b14610ad057600080fd5b8063bfe0e02011610120578063bfe0e02014610a3f578063c17dbdf914610a48578063c40d5dbc14610a5b578063cb0e0d7d14610a64578063cc759ba214610a84578063ce513b6f14610a8d57600080fd5b8063b17b6e44146109c8578063b35f0a8f146109db578063b3d9fa0914610a04578063b5df6d4414610a17578063bb51f32d14610a3757600080fd5b80638da5cb5b116101f5578063a39ebac2116101b9578063a39ebac214610943578063a8beb71714610963578063aaa749c514610976578063ab6db19914610989578063af4c6c1714610992578063b1390426146109b557600080fd5b80638da5cb5b146108ee5780638f9ef8c11461090157806398c07d0a146109145780639b8ff50314610927578063a27813351461093057600080fd5b80637eff829c1161023c5780637eff829c146108825780637fcc1e361461089557806381032892146108b5578063815374ca146108c85780638a6dab4c146108db57600080fd5b8063725fc270146108375780637367b0801461084a5780637583f8fc1461085d5780637b0412ed146108705780637db9e9c61461087957600080fd5b806343bf0bd4116103aa57806365535cb01161031c5780636c529279116102e05780636c529279146107c35780636f11c6c0146107cc5780636f7bc9be146107df57806370a0966b1461080857806370d7e3d51461081b5780637251b9ac1461082457600080fd5b806365535cb01461075f5780636589fa8a14610772578063664e62b91461078557806369ed1e0a146107a857806369f4a84b146107bb57600080fd5b806350188c081161036e57806350188c08146106f257806350da983f146106fa5780635216aeec1461070d5780635482252214610716578063625509161461072957806363a846f81461073c57600080fd5b806343bf0bd4146106a75780634728f718146106ba5780634acb7240146106c35780634b9b8203146106d65780634de1be62146106df57600080fd5b80632748d29b116104435780632acc8210116104075780632acc82101461064a5780632e8a03cf1461065d578063317cc77214610670578063339640b514610683578063348d4487146106965780633ccfd60b1461069f57600080fd5b80632748d29b146105c757806328cca719146105da57806329b8caff146105ed57806329e1a243146105f65780632a2d0c471461060957600080fd5b80631ce7f99b1161048a5780631ce7f99b146105585780631e403c351461056b5780631f5d65fd1461058b57806321309f21146105ab57806324de19f2146105be57600080fd5b80630dcf5535146104c75780630fe8964c146104dc5780631053abb1146104ef5780631140e85b1461051757806315e8392b14610538575b600080fd5b6104da6104d5366004613b9b565b610b50565b005b6104da6104ea366004613bf1565b610b9b565b6105026104fd366004613bb8565b610c29565b60405190151581526020015b60405180910390f35b61052a610525366004613f0d565b610df1565b60405190815260200161050e565b61054b610546366004613cda565b610f25565b60405161050e9190613fce565b61054b610566366004613d48565b610fba565b61057e610579366004613f3f565b611079565b60405161050e919061402e565b61052a610599366004613f0d565b60226020526000908152604090205481565b61052a6105b9366004613f0d565b61110e565b61052a60065481565b61052a6105d5366004613f0d565b61112f565b61052a6105e8366004613f0d565b611150565b61052a60145481565b61052a610604366004613f0d565b611160565b610632610617366004613f0d565b601e602052600090815260409020546001600160a01b031681565b6040516001600160a01b03909116815260200161050e565b610502610658366004613cda565b611170565b61050261066b366004613f0d565b6111b2565b6104da61067e366004613d06565b6111d3565b610632610691366004613cda565b611349565b61052a60245481565b6104da611381565b6105026106b5366004613e16565b611541565b61052a60115481565b6105026106d1366004613f0d565b6115bd565b61052a60105481565b61052a6106ed366004613f0d565b6115de565b61052a6115ff565b610502610708366004613b9b565b61161d565b61052a60155481565b61057e610724366004613f3f565b611668565b61052a610737366004613f0d565b6116fb565b61050261074a366004613b9b565b60016020526000908152604090205460ff1681565b6104da61076d366004613d06565b61170b565b61052a610780366004613f0d565b6117a7565b610798610793366004613b9b565b6117cc565b60405161050e9493929190614041565b6104da6107b6366004613b9b565b611bda565b6104da611c30565b61052a60055481565b6104da6107da366004613bf1565b611f41565b6107f26107ed366004613b9b565b611fc7565b60405161050e9a9998979695949392919061408c565b6104da610816366004613b9b565b6120a6565b61052a60175481565b610632610832366004613f0d565b6120f1565b61052a610845366004613f0d565b61211b565b61057e610858366004613e9e565b61212b565b61050261086b366004613d7d565b6121d6565b61052a60125481565b61052a600d5481565b6104da610890366004613b9b565b61221f565b6108a86108a3366004613de1565b612272565b60405161050e919061401b565b61052a6108c3366004613f0d565b612322565b61054b6108d6366004613b9b565b612332565b6105026108e9366004613cda565b6123e9565b600054610632906001600160a01b031681565b6104da61090f366004613c32565b6125f0565b61052a610922366004613b9b565b6129cb565b61052a60185481565b61063261093e366004613f0d565b612ba4565b61052a610951366004613b9b565b60236020526000908152604090205481565b610502610971366004613d7d565b612bb4565b610502610984366004613f0d565b612bf3565b61052a600f5481565b6105026109a0366004613b9b565b60026020526000908152604090205460ff1681565b600354610632906001600160a01b031681565b6105026109d6366004613ed3565b612c14565b6106326109e9366004613b9b565b601c602052600090815260409020546001600160a01b031681565b610502610a12366004613f0d565b612c42565b61052a610a25366004613f0d565b60216020526000908152604090205481565b6104da612c63565b61052a60165481565b6104da610a56366004613f0d565b612dd9565b61052a600e5481565b61052a610a72366004613b9b565b601f6020526000908152604090205481565b61052a60135481565b61052a610a9b366004613b9b565b61329b565b610502610aae366004613f0d565b6132e5565b600c546105029060ff1681565b61052a613319565b61052a6133c4565b6104da610ade366004613b9b565b613401565b60095461052a565b61052a610af9366004613f0d565b61347b565b610502610b0c366004613cda565b6134a0565b610b24610b1f366004613cda565b6134b8565b6040805193845260208401929092529082015260600161050e565b61052a6134fa565b61052a60195481565b6000546001600160a01b03163314610b6757600080fd5b6001600160a01b038116610b7a57600080fd5b6001600160a01b03166000908152600260205260409020805460ff19169055565b3360009081526001602052604090205460ff16610bb757600080fd5b6001600160a01b0383166000908152601a602052604090208215610bfe576002810154610be49083613553565b6002820155601654610bf69083613553565b601655610c23565b6002810154610c0d908361356f565b6002820155601654610c1f908361356f565b6016555b50505050565b3360009081526001602052604081205460ff16610c4557600080fd5b6001600160a01b038216610c5857600080fd5b6001600160a01b0383166000908152601a60205260409020805460ff16610dc057805460ff19166001178155601054600e54610c9491906141bd565b610c9e9042614183565b60018201556001600160a01b038481166000908152601c6020908152604080832080546001600160a01b0319169488169485179055928252601a9052908120600701805491610cec83614228565b90915550506001600160a01b038381166000908152601d60209081526040822080546001810182559083529082200180546001600160a01b031916928716929092179091556014805491610d3f83614228565b90915550506001600160a01b0384166000908152602080526040902060098054610d6a929190613841565b50602480546000908152601e6020908152604080832080546001600160a01b0319166001600160a01b038a169081179091558454908452601f90925282208190559190610db683614228565b9190505550610de5565b601054600e54610dd091906141bd565b8160010154610ddf9190614183565b60018201555b60019150505b92915050565b600080546001600160a01b03163314610e0957600080fd5b600480546040516370a0823160e01b8152309281019290925283916001600160a01b03909116906370a082319060240160206040518083038186803b158015610e5157600080fd5b505afa158015610e65573d6000803e3d6000fd5b505050506040513d601f19601f82011682018060405250810190610e899190613f26565b1015610e9457600080fd5b6004805460005460405163a9059cbb60e01b81526001600160a01b039182169381019390935260248301859052169063a9059cbb90604401602060405180830381600087803b158015610ee657600080fd5b505af1158015610efa573d6000803e3d6000fd5b505050506040513d601f19601f82011682018060405250810190610f1e9190613ef0565b5090919050565b60608060005b83811015610fb257610f3c82610fba565b6001600160a01b038087166000908152601c602052604090205482519294501690839083908110610f6f57610f6f614259565b6001600160a01b039283166020918202929092018101919091529581166000908152601c9096526040909520549094169380610faa81614228565b915050610f2b565b509392505050565b6060600082516001610fcc9190614183565b67ffffffffffffffff811115610fe457610fe461426f565b60405190808252806020026020018201604052801561100d578160200160208202803683370190505b50905060005b83518110156110725783818151811061102e5761102e614259565b602002602001015182828151811061104857611048614259565b6001600160a01b03909216602092830291909101909101528061106a81614228565b915050611013565b5092915050565b6000546060906001600160a01b0316331461109357600080fd5b81600884815481106110a7576110a7614259565b9060005260206000200181905550600880548060200260200160405190810160405280929190818152602001828054801561110157602002820191906000526020600020905b8154815260200190600101908083116110ed575b5050505050905092915050565b600b818154811061111e57600080fd5b600091825260209091200154905081565b600080546001600160a01b0316331461114757600080fd5b50601081905590565b6008818154811061111e57600080fd5b6026818154811061111e57600080fd5b60208052816000526040600020818154811061118b57600080fd5b9060005260206000209060209182820401919006915091509054906101000a900460ff1681565b600080546001600160a01b031633146111ca57600080fd5b50600655600190565b3360009081526001602052604090205460ff166111ef57600080fd5b600082116111fc57600080fd5b8015611302576001600160a01b0383166000908152601a60205260409020600401546112289083613553565b6001600160a01b038085166000908152601a6020908152604080832060040194909455601c9052919091205416156112fd576001600160a01b038084166000908152601c60209081526040808320549093168252601a90529081206009018054849290611296908490614183565b90915550506001600160a01b038084166000908152601c60209081526040808320549093168252601f81528282205482526021905290812080548492906112de908490614183565b9250508190555081601560008282546112f79190614183565b90915550505b505050565b6001600160a01b0383166000908152601a6020526040902060040154611328908361356f565b6001600160a01b0384166000908152601a6020526040902060040155505050565b601d602052816000526040600020818154811061136557600080fd5b6000918252602090912001546001600160a01b03169150829050565b600c5460ff1661139057600080fd5b336000818152601a60205260408120916113a99061329b565b600480546040516370a0823160e01b8152309281019290925291925082916001600160a01b0316906370a082319060240160206040518083038186803b1580156113f257600080fd5b505afa158015611406573d6000803e3d6000fd5b505050506040513d601f19601f8201168201806040525081019061142a9190613f26565b101561143557600080fd5b60055481101561144457600080fd5b6004546012546001600160a01b039091169063a9059cbb90339061147690606490611470908790613592565b906135c4565b6040516001600160e01b031960e085901b1681526001600160a01b0390921660048301526024820152604401602060405180830381600087803b1580156114bc57600080fd5b505af11580156114d0573d6000803e3d6000fd5b505050506040513d601f19601f820116820180604052508101906114f49190613ef0565b50808260060160008282546115099190614183565b909155505042600583015533600090815260236020526040812081905560178054839290611538908490614183565b90915550505050565b600080546001600160a01b0316331461155957600080fd5b835161156c90600990602087019061389f565b50825161158090600a90602086019061393f565b50815161159490600b90602085019061393f565b503360009081526020805260409020600980546115b2929190613841565b506001949350505050565b600080546001600160a01b031633146115d557600080fd5b50600e55600190565b600080546001600160a01b031633146115f657600080fd5b50600581905590565b6000611618601054600f5461359290919063ffffffff16565b905090565b600080546001600160a01b0316331461163557600080fd5b50600480546001600160a01b0383166001600160a01b031991821681179092556003805490911690911790556001919050565b6000546060906001600160a01b0316331461168257600080fd5b816007848154811061169657611696614259565b9060005260206000200181905550600780548060200260200160405190810160405280929190818152602001828054801561110157602002820191906000526020600020908154815260200190600101908083116110ed575050505050905092915050565b6028818154811061111e57600080fd5b3360009081526001602052604090205460ff1661172757600080fd5b6000821161173457600080fd5b8015611781576001600160a01b0383166000908152601a60205260409020600901546117609083613553565b6001600160a01b0384166000908152601a6020526040902060090155505050565b6001600160a01b0383166000908152601a6020526040902060090154611760908361356f565b3360009081526001602052604081205460ff166117c357600080fd5b50601181905590565b6060806060600080601a6000876001600160a01b03166001600160a01b03168152602001908152602001600020604051806101400160405290816000820160009054906101000a900460ff1615151515815260200160018201548152602001600282015481526020016003820154815260200160048201548152602001600582015481526020016006820154815260200160078201548152602001600882018054611876906141f3565b80601f01602080910402602001604051908101604052809291908181526020018280546118a2906141f3565b80156118ef5780601f106118c4576101008083540402835291602001916118ef565b820191906000526020600020905b8154815290600101906020018083116118d257829003601f168201915b5050509183525050600991909101546020918201526001600160a01b0388166000908152601b82526040808220805482518186028101860190935280835294955091939092849084015b828210156119895783829060005260206000209060030201604051806060016040529081600082015481526020016001820154815260200160028201548152505081526020019060010190611939565b50505050905060608060606000806000808751905060005b81811015611bc3576119b28861212b565b97506119bd8761212b565b96506119c886612272565b95508881815181106119dc576119dc614259565b60200260200101516000015187600189516119f791906141dc565b81518110611a0757611a07614259565b602002602001018181525050611a1b6115ff565b898281518110611a2d57611a2d614259565b602002602001015160000151611a439190614183565b4211611a4f5742611a7f565b611a576115ff565b898281518110611a6957611a69614259565b602002602001015160000151611a7f9190614183565b9250888181518110611a9357611a93614259565b6020026020010151600001518a60a0015111611acc57888181518110611abb57611abb614259565b602002602001015160000151611ad2565b8960a001515b93508315801590611ae257508284105b15611b6957611aef6115ff565b611af985856141dc565b8a8381518110611b0b57611b0b614259565b602002602001015160400151611b2191906141bd565b611b2b919061419b565b611b359086614183565b945060018660018851611b4891906141dc565b81518110611b5857611b58614259565b911515602092830291909101909101525b888181518110611b7b57611b7b614259565b6020026020010151604001518860018a51611b9691906141dc565b81518110611ba657611ba6614259565b602090810291909101015280611bbb81614228565b9150506119a1565b50959d949c50929a50909850919650505050505050565b3360009081526001602052604090205460ff16611bf657600080fd5b6001600160a01b038116611c0957600080fd5b6001600160a01b03166000908152600160208190526040909120805460ff19169091179055565b6000611c3b336129cb565b905060008111611c4a57600080fd5b336000908152601a60209081526040808320815161014081018352815460ff16151581526001820154938101939093526002810154918301919091526003810154606083015260048101546080830152600581015460a0830152600681015460c0830152600781015460e083015260088101805461010084019190611cce906141f3565b80601f0160208091040260200160405190810160405280929190818152602001828054611cfa906141f3565b8015611d475780601f10611d1c57610100808354040283529160200191611d47565b820191906000526020600020905b815481529060010190602001808311611d2a57829003601f168201915b50505050508152602001600982015481525050905060005b600a548110156112fd57600b8181548110611d7c57611d7c614259565b906000526020600020015482610120015110158015611dd857503360009081526020805260409020805482908110611db657611db6614259565b90600052602060002090602091828204019190069054906101000a900460ff16155b15611f2f57600454600a80546001600160a01b039092169163a9059cbb91339185908110611e0857611e08614259565b6000918252602090912001546040516001600160e01b031960e085901b1681526001600160a01b0390921660048301526024820152604401602060405180830381600087803b158015611e5a57600080fd5b505af1158015611e6e573d6000803e3d6000fd5b505050506040513d601f19601f82011682018060405250810190611e929190613ef0565b50336000908152602080526040902080546001919083908110611eb757611eb7614259565b90600052602060002090602091828204019190066101000a81548160ff021916908315150217905550600a8181548110611ef357611ef3614259565b6000918252602080832090910154338352601f825260408084205484526022909252908220805491929091611f29908490614183565b90915550505b80611f3981614228565b915050611d5f565b3360009081526001602052604090205460ff16611f5d57600080fd5b8115611fa4576001600160a01b038316600090815260236020526040902054611f869082613553565b6001600160a01b038416600090815260236020526040902055505050565b6001600160a01b038316600090815260236020526040902054611f86908261356f565b601a6020526000908152604090208054600182015460028301546003840154600485015460058601546006870154600788015460088901805460ff90991699979896979596949593949293919261201d906141f3565b80601f0160208091040260200160405190810160405280929190818152602001828054612049906141f3565b80156120965780601f1061206b57610100808354040283529160200191612096565b820191906000526020600020905b81548152906001019060200180831161207957829003601f168201915b505050505090806009015490508a565b6000546001600160a01b031633146120bd57600080fd5b6001600160a01b0381166120d057600080fd5b6001600160a01b03166000908152600160205260409020805460ff19169055565b6025818154811061210157600080fd5b6000918252602090912001546001600160a01b0316905081565b6007818154811061111e57600080fd5b606060008251600161213d9190614183565b67ffffffffffffffff8111156121555761215561426f565b60405190808252806020026020018201604052801561217e578160200160208202803683370190505b50905060005b83518110156110725783818151811061219f5761219f614259565b60200260200101518282815181106121b9576121b9614259565b6020908102919091010152806121ce81614228565b915050612184565b600080546001600160a01b031633146121ee57600080fd5b825161220190602590602086019061397a565b50815161221590602690602085019061393f565b5060019392505050565b3360009081526001602052604090205460ff1661223b57600080fd5b6001600160a01b03811661224e57600080fd5b6001600160a01b03166000908152600260205260409020805460ff19166001179055565b60606000825160016122849190614183565b67ffffffffffffffff81111561229c5761229c61426f565b6040519080825280602002602001820160405280156122c5578160200160208202803683370190505b50905060005b8351811015611072578381815181106122e6576122e6614259565b602002602001015182828151811061230057612300614259565b911515602092830291909101909101528061231a81614228565b9150506122cb565b600a818154811061111e57600080fd5b60608060005b6001600160a01b0384166000908152601d60205260409020548110156110725761236182610fba565b6001600160a01b0385166000908152601d602052604090208054919350908290811061238f5761238f614259565b9060005260206000200160009054906101000a90046001600160a01b03168282815181106123bf576123bf614259565b6001600160a01b0390921660209283029190910190910152806123e181614228565b915050612338565b3360009081526001602052604081205460ff1661240557600080fd5b6000821161241257600080fd5b6001600160a01b038381166000908152601c60205260409020541615612595576001600160a01b0383166000908152601a60205260409020600401546124b2576124ad838360078054806020026020016040519081016040528092919081815260200182805480156124a357602002820191906000526020600020905b81548152602001906001019080831161248f575b50505050506135de565b61250b565b61250b838360088054806020026020016040519081016040528092919081815260200182805480156124a3576020028201919060005260206000209081548152602001906001019080831161248f5750505050506135de565b6001600160a01b038084166000908152601c60209081526040808320549093168252601a90529081206009018054849290612547908490614183565b90915550506001600160a01b038084166000908152601c60209081526040808320549093168252601f815282822054825260219052908120805484929061258f908490614183565b90915550505b6001600160a01b0383166000908152601a6020526040812060040180548492906125c0908490614183565b9250508190555081601560008282546125d99190614183565b909155506125e990508383613785565b9392505050565b336000908152601a602052604090206001600160a01b03831661261257600080fd5b600d541561273f57600d5460048054604051636eb1769f60e11b815233928101929092523060248301526001600160a01b03169063dd62ed3e9060440160206040518083038186803b15801561266757600080fd5b505afa15801561267b573d6000803e3d6000fd5b505050506040513d601f19601f8201168201806040525081019061269f9190613f26565b10156126aa57600080fd5b60048054600d546040516323b872dd60e01b8152339381019390935230602484015260448301526001600160a01b0316906323b872dd90606401602060405180830381600087803b1580156126fe57600080fd5b505af1158015612712573d6000803e3d6000fd5b505050506040513d601f19601f820116820180604052508101906127369190613ef0565b61273f57600080fd5b60005b60255481101561285c57600454602580546001600160a01b039092169163a9059cbb91908490811061277657612776614259565b9060005260206000200160009054906101000a90046001600160a01b03166127cb6064611470602687815481106127af576127af614259565b9060005260206000200154600d5461359290919063ffffffff16565b6040516001600160e01b031960e085901b1681526001600160a01b0390921660048301526024820152604401602060405180830381600087803b15801561281157600080fd5b505af1158015612825573d6000803e3d6000fd5b505050506040513d601f19601f820116820180604052508101906128499190613ef0565b508061285481614228565b915050612742565b50805460ff1661299157805460ff19166001178155601054600e5461288191906141bd565b61288b9042614183565b6001820155336000908152601c6020908152604080832080546001600160a01b0319166001600160a01b0388169081179091558352601a90915281206007018054916128d683614228565b90915550506001600160a01b0383166000908152601d60209081526040822080546001810182559083529082200180546001600160a01b03191633179055601480549161292283614228565b9091555050336000908152602080526040902060098054612944929190613841565b50602480546000908152601e6020908152604080832080546001600160a01b031916339081179091558454908452601f9092528220819055919061298783614228565b91905055506129b6565b601054600e546129a191906141bd565b81600101546129b09190614183565b60018201555b8151610c2390600883019060208501906139cf565b6001600160a01b0381166000908152601a60209081526040808320815161014081018352815460ff16151581526001820154938101939093526002810154918301919091526003810154606083015260048101546080830152600581015460a0830152600681015460c0830152600781015460e083015260088101805484939291610100840191612a5b906141f3565b80601f0160208091040260200160405190810160405280929190818152602001828054612a87906141f3565b8015612ad45780601f10612aa957610100808354040283529160200191612ad4565b820191906000526020600020905b815481529060010190602001808311612ab757829003601f168201915b50505050508152602001600982015481525050905060005b600a54811015612b9d57600b8181548110612b0957612b09614259565b906000526020600020015482610120015110158015612b6557503360009081526020805260409020805482908110612b4357612b43614259565b90600052602060002090602091828204019190069054906101000a900460ff16155b15612b8b57600a8181548110612b7d57612b7d614259565b906000526020600020015492505b80612b9581614228565b915050612aec565b5050919050565b6027818154811061210157600080fd5b600080546001600160a01b03163314612bcc57600080fd5b8251612bdf90602790602086019061397a565b50815161221590602890602085019061393f565b600080546001600160a01b03163314612c0b57600080fd5b50600d55600190565b3360009081526001602052604081205460ff16612c3057600080fd5b50600c805460ff191682151517905590565b600080546001600160a01b03163314612c5a57600080fd5b50601255600190565b336000908152601a60205260409081902060028101546004805493516370a0823160e01b815230918101919091529192909182916001600160a01b0316906370a082319060240160206040518083038186803b158015612cc257600080fd5b505afa158015612cd6573d6000803e3d6000fd5b505050506040513d601f19601f82011682018060405250810190612cfa9190613f26565b1015612d0557600080fd5b600554811015612d1457600080fd5b6004546012546001600160a01b039091169063a9059cbb903390612d4090606490611470908790613592565b6040516001600160e01b031960e085901b1681526001600160a01b0390921660048301526024820152604401602060405180830381600087803b158015612d8657600080fd5b505af1158015612d9a573d6000803e3d6000fd5b505050506040513d601f19601f82011682018060405250810190612dbe9190613ef0565b50816002016000905580601960008282546115389190614183565b600654811015612de857600080fd5b336000908152601a60205260409020805460ff16612e0557600080fd5b80600101544210612e1557600080fd5b60048054604051636eb1769f60e11b8152339281019290925230602483015283916001600160a01b039091169063dd62ed3e9060440160206040518083038186803b158015612e6357600080fd5b505afa158015612e77573d6000803e3d6000fd5b505050506040513d601f19601f82011682018060405250810190612e9b9190613f26565b1015612ea657600080fd5b600480546040516323b872dd60e01b81523392810192909252306024830152604482018490526001600160a01b0316906323b872dd90606401602060405180830381600087803b158015612ef957600080fd5b505af1158015612f0d573d6000803e3d6000fd5b505050506040513d601f19601f82011682018060405250810190612f319190613ef0565b612f3a57600080fd5b336000908152601c60205260409020546001600160a01b0316156130ab57336000908152601a6020526040902060040154612fcd57612fc8338360078054806020026020016040519081016040528092919081815260200182805480156124a3576020028201919060005260206000209081548152602001906001019080831161248f5750505050506135de565b613026565b613026338360088054806020026020016040519081016040528092919081815260200182805480156124a3576020028201919060005260206000209081548152602001906001019080831161248f5750505050506135de565b336000908152601c60209081526040808320546001600160a01b03168352601a909152812060098101805491928592613060908490614183565b9091555050336000908152601c60209081526040808320546001600160a01b03168352601f82528083205483526021909152812080548592906130a4908490614183565b9091555050505b601b6000336001600160a01b03166001600160a01b0316815260200190815260200160002060405180606001604052804281526020016130fb60646114706011548861359290919063ffffffff16565b815260200161311a60646114706011548861359290919063ffffffff16565b905281546001818101845560009384526020808520845160039094020192835583015190820155604090910151600290910155600482018054849290613161908490614183565b92505081905550816015600082825461317a9190614183565b90915550600090505b6027548110156112fd57600454602780546001600160a01b039092169163a9059cbb9190849081106131b7576131b7614259565b9060005260206000200160009054906101000a90046001600160a01b031661320a6064611470602887815481106131f0576131f0614259565b90600052602060002001548961359290919063ffffffff16565b6040516001600160e01b031960e085901b1681526001600160a01b0390921660048301526024820152604401602060405180830381600087803b15801561325057600080fd5b505af1158015613264573d6000803e3d6000fd5b505050506040513d601f19601f820116820180604052508101906132889190613ef0565b508061329381614228565b915050613183565b6000606080606060006132ad866117cc565b6001600160a01b038a16600090815260236020526040902054939750919550935091506132db908290613553565b9695505050505050565b600981815481106132f557600080fd5b9060005260206000209060209182820401919006915054906101000a900460ff1681565b60008060005b6024548110156133be5760005b600a548110156133ab57600b818154811061334957613349614259565b906000526020600020015460216000848152602001908152602001600020541061339957600a818154811061338057613380614259565b9060005260206000200154836133969190614183565b92505b806133a381614228565b91505061332c565b50806133b681614228565b91505061331f565b50919050565b60008060005b6024548110156133be576000818152602260205260409020546133ed9083614183565b9150806133f981614228565b9150506133ca565b6000546001600160a01b0316331461341857600080fd5b6001600160a01b03811661342b57600080fd5b600080546001600160a01b039081168252600160208190526040808420805460ff1990811690915584546001600160a01b0319169590931694851784559383529290912080549091169091179055565b3360009081526001602052604081205460ff1661349757600080fd5b50600f81905590565b600080546001600160a01b0316331461240557600080fd5b601b60205281600052604060002081815481106134d457600080fd5b600091825260209091206003909102018054600182015460029092015490935090915083565b600080546001600160a01b0316331461351257600080fd5b600080546040516001600160a01b03909116914780156108fc02929091818181858888f1935050505015801561354c573d6000803e3d6000fd5b5047905090565b6000806135608385614183565b9050838110156125e957600080fd5b60008282111561357e57600080fd5b600061358a83856141dc565b949350505050565b6000826135a157506000610deb565b60006135ad83856141bd565b9050826135ba858361419b565b146125e957600080fd5b60008082116135d257600080fd5b600061358a838561419b565b60606135eb848351610f25565b905060008080805b855181101561377b5785818151811061360e5761360e614259565b602002602001015160001461376457601a600086838151811061363357613633614259565b6020908102919091018101516001600160a01b03168252810191909152604001600020805490925060ff16801561366e575042826001015410155b156137695760006001600160a01b031685828151811061369057613690614259565b60200260200101516001600160a01b031614613764576136d86103e86114708884815181106136c1576136c1614259565b60200260200101518a61359290919063ffffffff16565b935061370f6064611470600884815481106136f5576136f5614259565b90600052602060002001548a61359290919063ffffffff16565b9250838260020160008282546137259190614183565b92505081905550838260030160008282546137409190614183565b9250508190555083601660008282546137599190614183565b909155506137699050565b61377b565b8061377381614228565b9150506135f3565b5050505050505050565b600080821161379657506000610deb565b601b6000846001600160a01b03166001600160a01b0316815260200190815260200160002060405180606001604052804281526020016137e660646114706011548861359290919063ffffffff16565b815260200161380560646114706011548861359290919063ffffffff16565b90528154600180820184556000938452602093849020835160039093020191825592820151818401556040909101516002909101559392505050565b82805482825590600052602060002090601f0160209004810192821561388f57600052602060002091601f016020900482015b8281111561388f578254825591600101919060010190613874565b5061389b929150613a42565b5090565b82805482825590600052602060002090601f0160209004810192821561388f5791602002820160005b8382111561390557835183826101000a81548160ff02191690831515021790555092602001926001016020816000010492830192600103026138c8565b80156139325782816101000a81549060ff0219169055600101602081600001049283019260010302613905565b505061389b929150613a42565b82805482825590600052602060002090810192821561388f579160200282015b8281111561388f57825182559160200191906001019061395f565b82805482825590600052602060002090810192821561388f579160200282015b8281111561388f57825182546001600160a01b0319166001600160a01b0390911617825560209092019160019091019061399a565b8280546139db906141f3565b90600052602060002090601f0160209004810192826139fd576000855561388f565b82601f10613a1657805160ff191683800117855561388f565b8280016001018555821561388f579182018281111561388f57825182559160200191906001019061395f565b5b8082111561389b5760008155600101613a43565b600082601f830112613a6857600080fd5b81356020613a7d613a788361415f565b61412e565b80838252828201915082860187848660051b8901011115613a9d57600080fd5b60005b85811015613ac5578135613ab381614285565b84529284019290840190600101613aa0565b5090979650505050505050565b600082601f830112613ae357600080fd5b81356020613af3613a788361415f565b80838252828201915082860187848660051b8901011115613b1357600080fd5b60005b85811015613ac5578135613b298161429d565b84529284019290840190600101613b16565b600082601f830112613b4c57600080fd5b81356020613b5c613a788361415f565b80838252828201915082860187848660051b8901011115613b7c57600080fd5b60005b85811015613ac557813584529284019290840190600101613b7f565b600060208284031215613bad57600080fd5b81356125e981614285565b60008060408385031215613bcb57600080fd5b8235613bd681614285565b91506020830135613be681614285565b809150509250929050565b600080600060608486031215613c0657600080fd5b8335613c1181614285565b92506020840135613c218161429d565b929592945050506040919091013590565b60008060408385031215613c4557600080fd5b8235613c5081614285565b915060208381013567ffffffffffffffff80821115613c6e57600080fd5b818601915086601f830112613c8257600080fd5b813581811115613c9457613c9461426f565b613ca6601f8201601f1916850161412e565b91508082528784828501011115613cbc57600080fd5b80848401858401376000848284010152508093505050509250929050565b60008060408385031215613ced57600080fd5b8235613cf881614285565b946020939093013593505050565b600080600060608486031215613d1b57600080fd5b8335613d2681614285565b9250602084013591506040840135613d3d8161429d565b809150509250925092565b600060208284031215613d5a57600080fd5b813567ffffffffffffffff811115613d7157600080fd5b61358a84828501613a57565b60008060408385031215613d9057600080fd5b823567ffffffffffffffff80821115613da857600080fd5b613db486838701613a57565b93506020850135915080821115613dca57600080fd5b50613dd785828601613b3b565b9150509250929050565b600060208284031215613df357600080fd5b813567ffffffffffffffff811115613e0a57600080fd5b61358a84828501613ad2565b600080600060608486031215613e2b57600080fd5b833567ffffffffffffffff80821115613e4357600080fd5b613e4f87838801613ad2565b94506020860135915080821115613e6557600080fd5b613e7187838801613b3b565b93506040860135915080821115613e8757600080fd5b50613e9486828701613b3b565b9150509250925092565b600060208284031215613eb057600080fd5b813567ffffffffffffffff811115613ec757600080fd5b61358a84828501613b3b565b600060208284031215613ee557600080fd5b81356125e98161429d565b600060208284031215613f0257600080fd5b81516125e98161429d565b600060208284031215613f1f57600080fd5b5035919050565b600060208284031215613f3857600080fd5b5051919050565b60008060408385031215613f5257600080fd5b50508035926020909101359150565b600081518084526020808501945080840160005b83811015613f93578151151587529582019590820190600101613f75565b509495945050505050565b600081518084526020808501945080840160005b83811015613f9357815187529582019590820190600101613fb2565b6020808252825182820181905260009190848201906040850190845b8181101561400f5783516001600160a01b031683529284019291840191600101613fea565b50909695505050505050565b6020815260006125e96020830184613f61565b6020815260006125e96020830184613f9e565b6080815260006140546080830187613f9e565b82810360208401526140668187613f9e565b9050828103604084015261407a8186613f61565b91505082606083015295945050505050565b60006101408c1515835260208c818501528b60408501528a60608501528960808501528860a08501528760c08501528660e08501528161010085015285518083860152600092505b808310156140f3578683018201518584016101600152918101916140d4565b8083111561410657600061016082870101525b610120850195909552505050601f91909101601f191601610160019998505050505050505050565b604051601f8201601f1916810167ffffffffffffffff811182821017156141575761415761426f565b604052919050565b600067ffffffffffffffff8211156141795761417961426f565b5060051b60200190565b6000821982111561419657614196614243565b500190565b6000826141b857634e487b7160e01b600052601260045260246000fd5b500490565b60008160001904831182151516156141d7576141d7614243565b500290565b6000828210156141ee576141ee614243565b500390565b600181811c9082168061420757607f821691505b602082108114156133be57634e487b7160e01b600052602260045260246000fd5b600060001982141561423c5761423c614243565b5060010190565b634e487b7160e01b600052601160045260246000fd5b634e487b7160e01b600052603260045260246000fd5b634e487b7160e01b600052604160045260246000fd5b6001600160a01b038116811461429a57600080fd5b50565b801515811461429a57600080fdfea2646970667358221220836d890f7641f3cb1072378117fe1db6f23a3ee03ab2d96125b944da4d3a753364736f6c63430008070033",
    "sourcePath": "c:/Users/STC/Documents/GitHub/victory1/contracts/infinitySystemV2/UnilevelSystemV2.sol",
    "compiler": {
        "name": "solc",
        "version": "0.8.7+commit.e28d00a7"
    },
    "functionHashes": {
        "ChangeTokenPrincipal(address)": "50da983f",
        "MIN_RETIRO()": "6c529279",
        "PRECIO_BLOCK()": "24de19f2",
        "actualizarArrayBool(bool[])": "7fcc1e36",
        "actualizarArrayUint256(uint256[])": "7367b080",
        "actualizarNetwork(address[])": "1ce7f99b",
        "adRoi(address)": "a39ebac2",
        "addReferal(address,bool,uint256)": "0fe8964c",
        "addRoi(address,bool,uint256)": "6f11c6c0",
        "addressToId(address)": "cb0e0d7d",
        "admin(address)": "63a846f8",
        "admin2(address)": "af4c6c17",
        "asignarBlokePago(address,uint256)": "fc5d8615",
        "asignarBlokePago2(address,uint256)": "8a6dab4c",
        "asignarMembership(address,address)": "1053abb1",
        "baserange(uint256)": "cfda9ee6",
        "baserangelength()": "f5c9dbef",
        "blockesRango(uint256)": "b5df6d44",
        "blokes(address,uint256)": "fcec0fdf",
        "buyBlocks(uint256)": "c17dbdf9",
        "column(address,uint256)": "15e8392b",
        "columnHijos(address)": "815374ca",
        "controlWitdrawl(bool)": "b17b6e44",
        "depositos(address)": "664e62b9",
        "descuento()": "7b0412ed",
        "dias()": "ab6db199",
        "duracionMembership()": "c40d5dbc",
        "gananciasRango(uint256)": "81032892",
        "hijo(address,uint256)": "339640b5",
        "idToAddress(uint256)": "2a2d0c47",
        "investors(address)": "6f7bc9be",
        "lastUserId()": "348d4487",
        "makeNewAdmin(address)": "69ed1e0a",
        "makeNewAdmin2(address)": "7eff829c",
        "makeRemoveAdmin(address)": "70a0966b",
        "makeRemoveAdmin2(address)": "0dcf5535",
        "newRecompensa()": "69f4a84b",
        "onOffWitdrawl()": "e7348e8c",
        "owner()": "8da5cb5b",
        "padre(address)": "b35f0a8f",
        "personas()": "cc759ba2",
        "porcent()": "4728f718",
        "porcientos(uint256)": "28cca719",
        "precioRegistro()": "7db9e9c6",
        "primervez(uint256)": "725fc270",
        "puntosRango(uint256)": "21309f21",
        "rangoReclamado(address,uint256)": "2acc8210",
        "redimBNB()": "fd14d598",
        "redimTokenPrincipal02(uint256)": "1140e85b",
        "registro(address,string)": "8f9ef8c1",
        "setDescuento(uint256)": "b3d9fa09",
        "setMIN_RETIRO(uint256)": "4de1be62",
        "setPorcientos(uint256,uint256)": "1e403c35",
        "setPrecioRegistro(uint256)": "aaa749c5",
        "setPriceBlock(uint256)": "2e8a03cf",
        "setPrimeravezPorcientos(uint256,uint256)": "54822522",
        "setRangos(bool[],uint256[],uint256[])": "43bf0bd4",
        "setRetorno(uint256)": "6589fa8a",
        "setTiempo(uint256)": "f90b3f5a",
        "setTiempoUnidades(uint256)": "2748d29b",
        "setWalletFee(address[],uint256[])": "7583f8fc",
        "setWalletstransfers(address[],uint256[])": "a8beb717",
        "setduracionMembership(uint256)": "4acb7240",
        "tiempo()": "50188c08",
        "tokenPricipal()": "b1390426",
        "totalInvested()": "5216aeec",
        "totalInvestors()": "29b8caff",
        "totalRange()": "ecdb171f",
        "totalRangeWitdrawl()": "eef117fd",
        "totalRefRewards()": "bfe0e020",
        "totalRefWitdrawl()": "9b8ff503",
        "totalRoiWitdrawl()": "70d7e3d5",
        "totalTeamWitdrawl()": "ff0b0cc5",
        "transferOwnership(address)": "f2fde38b",
        "unidades()": "4b9b8203",
        "updateBloke(address,uint256,bool)": "317cc772",
        "updateBlokeRange(address,uint256,bool)": "65535cb0",
        "usdtRetirado(uint256)": "1f5d65fd",
        "valor(uint256)": "62550916",
        "valorFee(uint256)": "29e1a243",
        "wallet(uint256)": "a2781335",
        "walletFee(uint256)": "7251b9ac",
        "withdraw()": "3ccfd60b",
        "withdrawTeam()": "bb51f32d",
        "withdrawable(address)": "ce513b6f",
        "withdrawableRange(address)": "98c07d0a"
    },
    "gasEstimates": {
        "creation": {
            "codeDepositCost": "3424200",
            "executionCost": "infinite",
            "totalCost": "infinite"
        },
        "external": {
            "ChangeTokenPrincipal(address)": "51087",
            "MIN_RETIRO()": "2362",
            "PRECIO_BLOCK()": "2452",
            "actualizarArrayBool(bool[])": "infinite",
            "actualizarArrayUint256(uint256[])": "infinite",
            "actualizarNetwork(address[])": "infinite",
            "adRoi(address)": "2580",
            "addReferal(address,bool,uint256)": "infinite",
            "addRoi(address,bool,uint256)": "infinite",
            "addressToId(address)": "2646",
            "admin(address)": "2692",
            "admin2(address)": "2669",
            "asignarBlokePago(address,uint256)": "infinite",
            "asignarBlokePago2(address,uint256)": "infinite",
            "asignarMembership(address,address)": "infinite",
            "baserange(uint256)": "6292",
            "baserangelength()": "2358",
            "blockesRango(uint256)": "2572",
            "blokes(address,uint256)": "9157",
            "buyBlocks(uint256)": "infinite",
            "column(address,uint256)": "infinite",
            "columnHijos(address)": "infinite",
            "controlWitdrawl(bool)": "26830",
            "depositos(address)": "infinite",
            "descuento()": "2430",
            "dias()": "2428",
            "duracionMembership()": "2406",
            "gananciasRango(uint256)": "4687",
            "hijo(address,uint256)": "4912",
            "idToAddress(uint256)": "2634",
            "investors(address)": "infinite",
            "lastUserId()": "2451",
            "makeNewAdmin(address)": "26976",
            "makeNewAdmin2(address)": "26898",
            "makeRemoveAdmin(address)": "26906",
            "makeRemoveAdmin2(address)": "26843",
            "newRecompensa()": "infinite",
            "onOffWitdrawl()": "2388",
            "owner()": "2405",
            "padre(address)": "2642",
            "personas()": "2450",
            "porcent()": "2386",
            "porcientos(uint256)": "4666",
            "precioRegistro()": "2452",
            "primervez(uint256)": "4644",
            "puntosRango(uint256)": "4710",
            "rangoReclamado(address,uint256)": "6460",
            "redimBNB()": "infinite",
            "redimTokenPrincipal02(uint256)": "infinite",
            "registro(address,string)": "infinite",
            "setDescuento(uint256)": "24639",
            "setMIN_RETIRO(uint256)": "24692",
            "setPorcientos(uint256,uint256)": "infinite",
            "setPrecioRegistro(uint256)": "24638",
            "setPriceBlock(uint256)": "24617",
            "setPrimeravezPorcientos(uint256,uint256)": "infinite",
            "setRangos(bool[],uint256[],uint256[])": "infinite",
            "setRetorno(uint256)": "24673",
            "setTiempo(uint256)": "24671",
            "setTiempoUnidades(uint256)": "24604",
            "setWalletFee(address[],uint256[])": "infinite",
            "setWalletstransfers(address[],uint256[])": "infinite",
            "setduracionMembership(uint256)": "24640",
            "tiempo()": "infinite",
            "tokenPricipal()": "2514",
            "totalInvested()": "2407",
            "totalInvestors()": "2408",
            "totalRange()": "infinite",
            "totalRangeWitdrawl()": "infinite",
            "totalRefRewards()": "2362",
            "totalRefWitdrawl()": "2429",
            "totalRoiWitdrawl()": "2450",
            "totalTeamWitdrawl()": "2471",
            "transferOwnership(address)": "77584",
            "unidades()": "2430",
            "updateBloke(address,uint256,bool)": "infinite",
            "updateBlokeRange(address,uint256,bool)": "infinite",
            "usdtRetirado(uint256)": "2551",
            "valor(uint256)": "4731",
            "valorFee(uint256)": "4710",
            "wallet(uint256)": "4770",
            "walletFee(uint256)": "4791",
            "withdraw()": "infinite",
            "withdrawTeam()": "infinite",
            "withdrawable(address)": "infinite",
            "withdrawableRange(address)": "infinite"
        },
        "internal": {
            "_asignarBloke(address,uint256)": "infinite",
            "rewardReferers(address,uint256,uint256[] memory)": "infinite"
        }
    }
}