{
    "contractName": "Proxy",
    "abi": [
        {
            "stateMutability": "payable",
            "type": "fallback"
        },
        {
            "inputs": [
                {
                    "internalType": "address",
                    "name": "",
                    "type": "address"
                }
            ],
            "name": "admin",
            "outputs": [
                {
                    "internalType": "bool",
                    "name": "",
                    "type": "bool"
                }
            ],
            "stateMutability": "view",
            "type": "function"
        },
        {
            "inputs": [
                {
                    "internalType": "address",
                    "name": "",
                    "type": "address"
                }
            ],
            "name": "admin2",
            "outputs": [
                {
                    "internalType": "bool",
                    "name": "",
                    "type": "bool"
                }
            ],
            "stateMutability": "view",
            "type": "function"
        },
        {
            "inputs": [],
            "name": "implementation",
            "outputs": [
                {
                    "internalType": "address",
                    "name": "",
                    "type": "address"
                }
            ],
            "stateMutability": "view",
            "type": "function"
        },
        {
            "inputs": [
                {
                    "internalType": "address payable",
                    "name": "_newadmin",
                    "type": "address"
                }
            ],
            "name": "makeNewAdmin",
            "outputs": [],
            "stateMutability": "nonpayable",
            "type": "function"
        },
        {
            "inputs": [
                {
                    "internalType": "address payable",
                    "name": "_newadmin",
                    "type": "address"
                }
            ],
            "name": "makeNewAdmin2",
            "outputs": [],
            "stateMutability": "nonpayable",
            "type": "function"
        },
        {
            "inputs": [
                {
                    "internalType": "address payable",
                    "name": "_oldadmin",
                    "type": "address"
                }
            ],
            "name": "makeRemoveAdmin",
            "outputs": [],
            "stateMutability": "nonpayable",
            "type": "function"
        },
        {
            "inputs": [
                {
                    "internalType": "address payable",
                    "name": "_oldadmin",
                    "type": "address"
                }
            ],
            "name": "makeRemoveAdmin2",
            "outputs": [],
            "stateMutability": "nonpayable",
            "type": "function"
        },
        {
            "inputs": [],
            "name": "owner",
            "outputs": [
                {
                    "internalType": "address payable",
                    "name": "",
                    "type": "address"
                }
            ],
            "stateMutability": "view",
            "type": "function"
        },
        {
            "inputs": [
                {
                    "internalType": "address payable",
                    "name": "newOwner",
                    "type": "address"
                }
            ],
            "name": "transferOwnership",
            "outputs": [],
            "stateMutability": "nonpayable",
            "type": "function"
        },
        {
            "inputs": [
                {
                    "internalType": "address",
                    "name": "_imp",
                    "type": "address"
                }
            ],
            "name": "upgradeImplementation",
            "outputs": [],
            "stateMutability": "nonpayable",
            "type": "function"
        },
        {
            "inputs": [],
            "name": "upgraded",
            "outputs": [
                {
                    "internalType": "uint256",
                    "name": "",
                    "type": "uint256"
                }
            ],
            "stateMutability": "view",
            "type": "function"
        },
        {
            "stateMutability": "payable",
            "type": "receive"
        }
    ],
    "bytecode": "608060405234801561001057600080fd5b50600080546001600160a01b0319163390811782558152600160208190526040909120805460ff191690911790556105448061004d6000396000f3fe6080604052600436106100a05760003560e01c80637eff829c116100645780637eff829c146101ae57806383f94db7146101ce5780638da5cb5b146101ee578063af4c6c171461020e578063c28de2cd1461023e578063f2fde38b14610262576100bc565b80630dcf5535146100d15780635c60da1b146100f157806363a846f81461012e57806369ed1e0a1461016e57806370a0966b1461018e576100bc565b366100bc576003546100ba906001600160a01b0316610282565b005b6003546100ba906001600160a01b0316610282565b3480156100dd57600080fd5b506100ba6100ec3660046104c1565b6102a6565b3480156100fd57600080fd5b50600354610111906001600160a01b031681565b6040516001600160a01b0390911681526020015b60405180910390f35b34801561013a57600080fd5b5061015e6101493660046104c1565b60016020526000908152604090205460ff1681565b6040519015158152602001610125565b34801561017a57600080fd5b506100ba6101893660046104c1565b6102f1565b34801561019a57600080fd5b506100ba6101a93660046104c1565b610347565b3480156101ba57600080fd5b506100ba6101c93660046104c1565b610392565b3480156101da57600080fd5b506100ba6101e93660046104c1565b6103e5565b3480156101fa57600080fd5b50600054610111906001600160a01b031681565b34801561021a57600080fd5b5061015e6102293660046104c1565b60026020526000908152604090205460ff1681565b34801561024a57600080fd5b5061025460045481565b604051908152602001610125565b34801561026e57600080fd5b506100ba61027d3660046104c1565b61042f565b3660008037600080366000845af43d6000803e8080156102a1573d6000f35b3d6000fd5b6000546001600160a01b031633146102bd57600080fd5b6001600160a01b0381166102d057600080fd5b6001600160a01b03166000908152600260205260409020805460ff19169055565b3360009081526001602052604090205460ff1661030d57600080fd5b6001600160a01b03811661032057600080fd5b6001600160a01b03166000908152600160208190526040909120805460ff19169091179055565b6000546001600160a01b0316331461035e57600080fd5b6001600160a01b03811661037157600080fd5b6001600160a01b03166000908152600160205260409020805460ff19169055565b3360009081526001602052604090205460ff166103ae57600080fd5b6001600160a01b0381166103c157600080fd5b6001600160a01b03166000908152600260205260409020805460ff19166001179055565b6000546001600160a01b031633146103fc57600080fd5b600380546001600160a01b0319166001600160a01b03831617905560048054906000610427836104e5565b919050555050565b6000546001600160a01b0316331461044657600080fd5b6001600160a01b03811661045957600080fd5b600080546001600160a01b039081168252600160208190526040808420805460ff1990811690915584546001600160a01b0319169590931694851784559383529290912080549091169091179055565b6001600160a01b03811681146104be57600080fd5b50565b6000602082840312156104d357600080fd5b81356104de816104a9565b9392505050565b600060001982141561050757634e487b7160e01b600052601160045260246000fd5b506001019056fea2646970667358221220970ed02c10dcc5b94425d3edc6a4ccf4c92cdf9181371cf926b9a2ab2173d1e964736f6c634300080a0033",
    "sourcePath": "c:/Users/STC/Documents/GitHub/00-IB-2-last/contracts/infinitySystemV2/UnilevelSystemV2.sol",
    "compiler": {
        "name": "solc",
        "version": "0.8.10+commit.fc410830"
    },
    "functionHashes": {
        "admin(address)": "63a846f8",
        "admin2(address)": "af4c6c17",
        "implementation()": "5c60da1b",
        "makeNewAdmin(address)": "69ed1e0a",
        "makeNewAdmin2(address)": "7eff829c",
        "makeRemoveAdmin(address)": "70a0966b",
        "makeRemoveAdmin2(address)": "0dcf5535",
        "owner()": "8da5cb5b",
        "transferOwnership(address)": "f2fde38b",
        "upgradeImplementation(address)": "83f94db7",
        "upgraded()": "c28de2cd"
    },
    "gasEstimates": {
        "creation": {
            "codeDepositCost": "269600",
            "executionCost": "48849",
            "totalCost": "318449"
        },
        "external": {
            "": "infinite",
            "admin(address)": "2570",
            "admin2(address)": "2591",
            "implementation()": "2349",
            "makeNewAdmin(address)": "26909",
            "makeNewAdmin2(address)": "26830",
            "makeRemoveAdmin(address)": "26862",
            "makeRemoveAdmin2(address)": "26774",
            "owner()": "2370",
            "transferOwnership(address)": "77539",
            "upgradeImplementation(address)": "51006",
            "upgraded()": "2383"
        },
        "internal": {
            "_delegate(address)": "infinite"
        }
    }
}